{
    "contractName": "TxAuthenticator",
    "abi": [
        {
            "inputs": [
                {
                    "internalType": "address",
                    "name": "_yubikeyPubKeyContract",
                    "type": "address"
                },
                {
                    "internalType": "uint256",
                    "name": "spendLimit",
                    "type": "uint256"
                },
                {
                    "internalType": "address",
                    "name": "owner",
                    "type": "address"
                }
            ],
            "stateMutability": "payable",
            "type": "constructor"
        },
        {
            "inputs": [],
            "name": "InvalidAuthenticatorData",
            "type": "error"
        },
        {
            "inputs": [],
            "name": "InvalidClientData",
            "type": "error"
        },
        {
            "inputs": [],
            "name": "InvalidSignature",
            "type": "error"
        },
        {
            "anonymous": false,
            "inputs": [
                {
                    "indexed": true,
                    "internalType": "address",
                    "name": "previousOwner",
                    "type": "address"
                },
                {
                    "indexed": true,
                    "internalType": "address",
                    "name": "newOwner",
                    "type": "address"
                }
            ],
            "name": "OwnershipTransferred",
            "type": "event"
        },
        {
            "anonymous": false,
            "inputs": [
                {
                    "indexed": false,
                    "internalType": "address",
                    "name": "",
                    "type": "address"
                },
                {
                    "indexed": false,
                    "internalType": "uint256",
                    "name": "",
                    "type": "uint256"
                }
            ],
            "name": "Received",
            "type": "event"
        },
        {
            "stateMutability": "payable",
            "type": "fallback"
        },
        {
            "inputs": [
                {
                    "internalType": "address payable",
                    "name": "recipient",
                    "type": "address"
                },
                {
                    "internalType": "uint256",
                    "name": "amount",
                    "type": "uint256"
                },
                {
                    "internalType": "bytes",
                    "name": "authenticatorData",
                    "type": "bytes"
                },
                {
                    "internalType": "bytes1",
                    "name": "authenticatorDataFlagMask",
                    "type": "bytes1"
                },
                {
                    "internalType": "bytes",
                    "name": "clientData",
                    "type": "bytes"
                },
                {
                    "internalType": "bytes32",
                    "name": "clientChallenge",
                    "type": "bytes32"
                },
                {
                    "internalType": "uint256",
                    "name": "clientChallengeDataOffset",
                    "type": "uint256"
                },
                {
                    "internalType": "uint256[2]",
                    "name": "rs",
                    "type": "uint256[2]"
                }
            ],
            "name": "authenticatedTransfer",
            "outputs": [],
            "stateMutability": "nonpayable",
            "type": "function"
        },
        {
            "inputs": [
                {
                    "internalType": "bytes32",
                    "name": "",
                    "type": "bytes32"
                }
            ],
            "name": "challenges",
            "outputs": [
                {
                    "internalType": "bool",
                    "name": "",
                    "type": "bool"
                }
            ],
            "stateMutability": "view",
            "type": "function"
        },
        {
            "inputs": [
                {
                    "internalType": "bytes",
                    "name": "authenticatorData",
                    "type": "bytes"
                },
                {
                    "internalType": "bytes1",
                    "name": "authenticatorDataFlagMask",
                    "type": "bytes1"
                },
                {
                    "internalType": "bytes",
                    "name": "clientData",
                    "type": "bytes"
                },
                {
                    "internalType": "bytes32",
                    "name": "clientChallenge",
                    "type": "bytes32"
                },
                {
                    "internalType": "uint256",
                    "name": "clientChallengeDataOffset",
                    "type": "uint256"
                },
                {
                    "internalType": "uint256[2]",
                    "name": "rs",
                    "type": "uint256[2]"
                },
                {
                    "internalType": "address",
                    "name": "Q",
                    "type": "address"
                }
            ],
            "name": "checkSignature",
            "outputs": [
                {
                    "internalType": "bool",
                    "name": "",
                    "type": "bool"
                }
            ],
            "stateMutability": "view",
            "type": "function"
        },
        {
            "inputs": [],
            "name": "counter",
            "outputs": [
                {
                    "internalType": "uint256",
                    "name": "",
                    "type": "uint256"
                }
            ],
            "stateMutability": "view",
            "type": "function"
        },
        {
            "inputs": [],
            "name": "getSpendLimitPerDay",
            "outputs": [
                {
                    "internalType": "uint256",
                    "name": "",
                    "type": "uint256"
                }
            ],
            "stateMutability": "view",
            "type": "function"
        },
        {
            "inputs": [],
            "name": "owner",
            "outputs": [
                {
                    "internalType": "address",
                    "name": "",
                    "type": "address"
                }
            ],
            "stateMutability": "view",
            "type": "function"
        },
        {
            "inputs": [],
            "name": "renounceOwnership",
            "outputs": [],
            "stateMutability": "nonpayable",
            "type": "function"
        },
        {
            "inputs": [
                {
                    "internalType": "uint256",
                    "name": "newLimit",
                    "type": "uint256"
                }
            ],
            "name": "setSpendLimitPerDay",
            "outputs": [],
            "stateMutability": "nonpayable",
            "type": "function"
        },
        {
            "inputs": [
                {
                    "internalType": "address payable",
                    "name": "recipient",
                    "type": "address"
                },
                {
                    "internalType": "uint256",
                    "name": "amount",
                    "type": "uint256"
                }
            ],
            "name": "simpleTransfer",
            "outputs": [],
            "stateMutability": "nonpayable",
            "type": "function"
        },
        {
            "inputs": [
                {
                    "internalType": "address",
                    "name": "newOwner",
                    "type": "address"
                }
            ],
            "name": "transferOwnership",
            "outputs": [],
            "stateMutability": "nonpayable",
            "type": "function"
        },
        {
            "inputs": [
                {
                    "internalType": "bytes",
                    "name": "authenticatorData",
                    "type": "bytes"
                },
                {
                    "internalType": "bytes1",
                    "name": "authenticatorDataFlagMask",
                    "type": "bytes1"
                },
                {
                    "internalType": "bytes",
                    "name": "clientData",
                    "type": "bytes"
                },
                {
                    "internalType": "bytes32",
                    "name": "clientChallenge",
                    "type": "bytes32"
                },
                {
                    "internalType": "uint256",
                    "name": "clientChallengeDataOffset",
                    "type": "uint256"
                },
                {
                    "internalType": "uint256[2]",
                    "name": "rs",
                    "type": "uint256[2]"
                },
                {
                    "internalType": "address",
                    "name": "Q",
                    "type": "address"
                }
            ],
            "name": "validate",
            "outputs": [],
            "stateMutability": "nonpayable",
            "type": "function"
        },
        {
            "stateMutability": "payable",
            "type": "receive"
        }
    ],
    "bytecode": "6080604052604051620010e8380380620010e88339810160408190526200002691620001b5565b620000313362000065565b600280546001600160a01b0319166001600160a01b03851617905560048290556200005c81620000b7565b505050620001f6565b600180546001600160a01b038381166001600160a01b0319831681179093556040519116919082907f8be0079c531659141344cd1fd0a4f28419497f9722a3daafe3b4186f6b6457e090600090a35050565b620000c16200013a565b6001600160a01b0381166200012c5760405162461bcd60e51b815260206004820152602660248201527f4f776e61626c653a206e6577206f776e657220697320746865207a65726f206160448201526564647265737360d01b60648201526084015b60405180910390fd5b620001378162000065565b50565b6001546001600160a01b03163314620001965760405162461bcd60e51b815260206004820181905260248201527f4f776e61626c653a2063616c6c6572206973206e6f7420746865206f776e6572604482015260640162000123565b565b80516001600160a01b0381168114620001b057600080fd5b919050565b600080600060608486031215620001cb57600080fd5b620001d68462000198565b925060208401519150620001ed6040850162000198565b90509250925092565b610ee280620002066000396000f3fe60806040526004361061009a5760003560e01c8063715018a611610061578063715018a6146101895780638da5cb5b1461019e578063a4ec7b25146101c6578063c1e69b66146101e6578063e6c3f22414610216578063f2fde38b1461023657005b8063014891dd146100db578063348f9d3e1461011057806347f5ae541461013057806361bc221a146101505780636a5b9c9f1461017457005b366100d957604080513381523460208201527f88a5966d370b9919b20f3e2c13ff65706f196a4e32cc2c12bf57088f88525874910160405180910390a1005b005b3480156100e757600080fd5b506100fb6100f6366004610b40565b610256565b60405190151581526020015b60405180910390f35b34801561011c57600080fd5b506100d961012b366004610bef565b610560565b34801561013c57600080fd5b506100d961014b366004610c1b565b61063f565b34801561015c57600080fd5b5061016660005481565b604051908152602001610107565b34801561018057600080fd5b50600454610166565b34801561019557600080fd5b506100d96106c2565b3480156101aa57600080fd5b506001546040516001600160a01b039091168152602001610107565b3480156101d257600080fd5b506100d96101e1366004610cd1565b600455565b3480156101f257600080fd5b506100fb610201366004610cd1565b60036020526000908152604090205460ff1681565b34801561022257600080fd5b506100d9610231366004610b40565b6106d6565b34801561024257600080fd5b506100d9610251366004610cea565b61071f565b6000866001600160f81b031916878960208151811061027757610277610d0e565b0160200151166001600160f81b031916146102a557604051637e49a3c960e11b815260040160405180910390fd5b60006102d1866040516020016102bd91815260200190565b604051602081830303815290604052610798565b90506000815167ffffffffffffffff8111156102ef576102ef6109fb565b6040519080825280601f01601f191660200182016040528015610319576020820181803683370190505b50905061032b888783518460006108c1565b508060405160200161033d9190610d24565b60405160208183030381529060405280519060200120826040516020016103649190610d24565b60405160208183030381529060405280519060200120146103985760405163ebab5d2960e01b815260040160405180910390fd5b60008a5160206103a89190610d69565b67ffffffffffffffff8111156103c0576103c06109fb565b6040519080825280601f01601f1916602001820160405280156103ea576020820181803683370190505b5090506103fd8b60008d518460006108c1565b5061047e60028a6040516104119190610d24565b602060405180830381855afa15801561042e573d6000803e3d6000fd5b5050506040513d601f19601f820116820180604052508101906104519190610d82565b60405160200161046391815260200190565b60405160208183030381529060405260006020848f516108c1565b5060006002826040516104919190610d24565b602060405180830381855afa1580156104ae573d6000803e3d6000fd5b5050506040513d601f19601f820116820180604052508101906104d19190610d82565b6040516310f52cb360e11b815290915073__$dddc639ec2136c1b2c708f96d23ee76444$__906321ea59669061050f9084908b908b90600401610d9b565b602060405180830381865af415801561052c573d6000803e3d6000fd5b505050506040513d601f19601f820116820180604052508101906105509190610de5565b9c9b505050505050505050505050565b61056861094f565b600454816005546105799190610d69565b1161059b5780600560008282546105909190610d69565b909155506106009050565b611c20600654436105ac9190610e07565b10156105bc576005819055610600565b60405162461bcd60e51b815260206004820152601460248201527311185a5b1e481b1a5b5a5d08195e18d95959195960621b60448201526064015b60405180910390fd5b6040516001600160a01b0383169082156108fc029083906000818181858888f19350505050158015610636573d6000803e3d6000fd5b50504360065550565b61064761094f565b61066b868686868686600260009054906101000a90046001600160a01b03166106d6565b600083815260036020526040808220805460ff19166001179055516001600160a01b038a169189156108fc02918a91818181858888f193505050501580156106b7573d6000803e3d6000fd5b505050505050505050565b6106ca61094f565b6106d460006109a9565b565b6106e587878787878787610256565b61070257604051638baa579f60e01b815260040160405180910390fd5b60008054908061071183610e1a565b919050555050505050505050565b61072761094f565b6001600160a01b03811661078c5760405162461bcd60e51b815260206004820152602660248201527f4f776e61626c653a206e6577206f776e657220697320746865207a65726f206160448201526564647265737360d01b60648201526084016105f7565b610795816109a9565b50565b606081516000036107b757505060408051602081019091526000815290565b6000604051806060016040528060408152602001610e6d604091399050600060016003855160026107e89190610d69565b6107f29190610e33565b6107fd906004610e55565b6108079190610e07565b67ffffffffffffffff81111561081f5761081f6109fb565b6040519080825280601f01601f191660200182016040528015610849576020820181803683370190505b509050600182016020820185865187015b808210156108b5576003820191508151603f8160121c168501518453600184019350603f81600c1c168501518453600184019350603f8160061c168501518453600184019350603f811685015184535060018301925061085a565b50929695505050505050565b606060006108cf8386610d69565b905080845110156108df57600080fd5b60006108ec876020610d69565b905060006108fb856020610d69565b90505b8661090a896020610d69565b6109149190610d69565b82101561094257888201518682015261092e602083610d69565b915061093b602082610d69565b90506108fe565b5093979650505050505050565b6001546001600160a01b031633146106d45760405162461bcd60e51b815260206004820181905260248201527f4f776e61626c653a2063616c6c6572206973206e6f7420746865206f776e657260448201526064016105f7565b600180546001600160a01b038381166001600160a01b0319831681179093556040519116919082907f8be0079c531659141344cd1fd0a4f28419497f9722a3daafe3b4186f6b6457e090600090a35050565b634e487b7160e01b600052604160045260246000fd5b600082601f830112610a2257600080fd5b813567ffffffffffffffff80821115610a3d57610a3d6109fb565b604051601f8301601f19908116603f01168101908282118183101715610a6557610a656109fb565b81604052838152866020858801011115610a7e57600080fd5b836020870160208301376000602085830101528094505050505092915050565b80356001600160f81b031981168114610ab657600080fd5b919050565b600082601f830112610acc57600080fd5b6040516040810181811067ffffffffffffffff82111715610aef57610aef6109fb565b8060405250806040840185811115610b0657600080fd5b845b81811015610b20578035835260209283019201610b08565b509195945050505050565b6001600160a01b038116811461079557600080fd5b6000806000806000806000610100888a031215610b5c57600080fd5b873567ffffffffffffffff80821115610b7457600080fd5b610b808b838c01610a11565b9850610b8e60208b01610a9e565b975060408a0135915080821115610ba457600080fd5b50610bb18a828b01610a11565b9550506060880135935060808801359250610bcf8960a08a01610abb565b915060e0880135610bdf81610b2b565b8091505092959891949750929550565b60008060408385031215610c0257600080fd5b8235610c0d81610b2b565b946020939093013593505050565b600080600080600080600080610120898b031215610c3857600080fd5b8835610c4381610b2b565b975060208901359650604089013567ffffffffffffffff80821115610c6757600080fd5b610c738c838d01610a11565b9750610c8160608c01610a9e565b965060808b0135915080821115610c9757600080fd5b50610ca48b828c01610a11565b94505060a0890135925060c08901359150610cc28a60e08b01610abb565b90509295985092959890939650565b600060208284031215610ce357600080fd5b5035919050565b600060208284031215610cfc57600080fd5b8135610d0781610b2b565b9392505050565b634e487b7160e01b600052603260045260246000fd5b6000825160005b81811015610d455760208186018101518583015201610d2b565b506000920191825250919050565b634e487b7160e01b600052601160045260246000fd5b80820180821115610d7c57610d7c610d53565b92915050565b600060208284031215610d9457600080fd5b5051919050565b8381526080810160208083018560005b6002811015610dc857815183529183019190830190600101610dab565b505050506001600160a01b03929092166060919091015292915050565b600060208284031215610df757600080fd5b81518015158114610d0757600080fd5b81810381811115610d7c57610d7c610d53565b600060018201610e2c57610e2c610d53565b5060010190565b600082610e5057634e487b7160e01b600052601260045260246000fd5b500490565b8082028115828204841417610d7c57610d7c610d5356fe4142434445464748494a4b4c4d4e4f505152535455565758595a6162636465666768696a6b6c6d6e6f707172737475767778797a303132333435363738392d5fa2646970667358221220fe6c876865ff7ae03ef739ecf3ceb06aab1e4a929ffb06720f21105a09754eae64736f6c63430008130033",
    "sourcePath": "/home/dev43/blockchain/hackathon/ethparis/txauthenticator/txauth/contracts/TxAuthenticator.sol",
    "compiler": {
        "name": "solc",
        "version": "0.8.19+commit.7dd6d404"
    },
    "functionHashes": {
        "authenticatedTransfer(address,uint256,bytes,bytes1,bytes,bytes32,uint256,uint256[2])": "47f5ae54",
        "challenges(bytes32)": "c1e69b66",
        "checkSignature(bytes,bytes1,bytes,bytes32,uint256,uint256[2],address)": "014891dd",
        "counter()": "61bc221a",
        "getSpendLimitPerDay()": "6a5b9c9f",
        "owner()": "8da5cb5b",
        "renounceOwnership()": "715018a6",
        "setSpendLimitPerDay(uint256)": "a4ec7b25",
        "simpleTransfer(address,uint256)": "348f9d3e",
        "transferOwnership(address)": "f2fde38b",
        "validate(bytes,bytes1,bytes,bytes32,uint256,uint256[2],address)": "e6c3f224"
    },
    "gasEstimates": {
        "creation": {
            "codeDepositCost": "762000",
            "executionCost": "infinite",
            "totalCost": "infinite"
        },
        "external": {
            "": "184",
            "authenticatedTransfer(address,uint256,bytes,bytes1,bytes,bytes32,uint256,uint256[2])": "infinite",
            "challenges(bytes32)": "2505",
            "checkSignature(bytes,bytes1,bytes,bytes32,uint256,uint256[2],address)": "infinite",
            "counter()": "2362",
            "getSpendLimitPerDay()": "2381",
            "owner()": "2323",
            "renounceOwnership()": "infinite",
            "setSpendLimitPerDay(uint256)": "22356",
            "simpleTransfer(address,uint256)": "infinite",
            "transferOwnership(address)": "infinite",
            "validate(bytes,bytes1,bytes,bytes32,uint256,uint256[2],address)": "infinite"
        }
    }
}